{
  "_format": "hh-sol-artifact-1",
  "contractName": "Lottery",
  "sourceName": "contracts/Lottery.sol",
  "abi": [
    {
      "inputs": [
        {
          "internalType": "address",
          "name": "_manager",
          "type": "address"
        }
      ],
      "stateMutability": "nonpayable",
      "type": "constructor"
    },
    {
      "anonymous": false,
      "inputs": [
        {
          "indexed": false,
          "internalType": "address",
          "name": "winner",
          "type": "address"
        },
        {
          "indexed": false,
          "internalType": "uint256",
          "name": "winningPrice",
          "type": "uint256"
        }
      ],
      "name": "WinnerDeclared",
      "type": "event"
    },
    {
      "inputs": [],
      "name": "_end",
      "outputs": [
        {
          "internalType": "uint256",
          "name": "",
          "type": "uint256"
        }
      ],
      "stateMutability": "view",
      "type": "function"
    },
    {
      "inputs": [],
      "name": "end",
      "outputs": [],
      "stateMutability": "nonpayable",
      "type": "function"
    },
    {
      "inputs": [],
      "name": "enter",
      "outputs": [],
      "stateMutability": "payable",
      "type": "function"
    },
    {
      "inputs": [],
      "name": "entryFee",
      "outputs": [
        {
          "internalType": "uint256",
          "name": "",
          "type": "uint256"
        }
      ],
      "stateMutability": "view",
      "type": "function"
    },
    {
      "inputs": [],
      "name": "getPlayers",
      "outputs": [
        {
          "internalType": "address[]",
          "name": "",
          "type": "address[]"
        }
      ],
      "stateMutability": "view",
      "type": "function"
    },
    {
      "inputs": [],
      "name": "getRemainingTime",
      "outputs": [
        {
          "internalType": "uint256",
          "name": "",
          "type": "uint256"
        }
      ],
      "stateMutability": "nonpayable",
      "type": "function"
    },
    {
      "inputs": [],
      "name": "getWinner",
      "outputs": [
        {
          "internalType": "address",
          "name": "",
          "type": "address"
        }
      ],
      "stateMutability": "view",
      "type": "function"
    },
    {
      "inputs": [],
      "name": "manager",
      "outputs": [
        {
          "internalType": "address",
          "name": "",
          "type": "address"
        }
      ],
      "stateMutability": "view",
      "type": "function"
    },
    {
      "inputs": [
        {
          "internalType": "uint256",
          "name": "",
          "type": "uint256"
        }
      ],
      "name": "players",
      "outputs": [
        {
          "internalType": "address",
          "name": "",
          "type": "address"
        }
      ],
      "stateMutability": "view",
      "type": "function"
    },
    {
      "inputs": [
        {
          "internalType": "uint256",
          "name": "_timeInMinutes",
          "type": "uint256"
        }
      ],
      "name": "start",
      "outputs": [],
      "stateMutability": "nonpayable",
      "type": "function"
    },
    {
      "inputs": [],
      "name": "status",
      "outputs": [
        {
          "internalType": "enum Lottery.LotteryStatus",
          "name": "",
          "type": "uint8"
        }
      ],
      "stateMutability": "view",
      "type": "function"
    },
    {
      "inputs": [],
      "name": "time",
      "outputs": [
        {
          "internalType": "uint256",
          "name": "",
          "type": "uint256"
        }
      ],
      "stateMutability": "view",
      "type": "function"
    },
    {
      "inputs": [],
      "name": "winningPrice",
      "outputs": [
        {
          "internalType": "uint256",
          "name": "",
          "type": "uint256"
        }
      ],
      "stateMutability": "view",
      "type": "function"
    }
  ],
  "bytecode": "0x608060405267016345785d8a0000600255426005556000600660006101000a81548160ff021916908360028111156200003d576200003c620000bc565b5b02179055503480156200004f57600080fd5b50604051620016f6380380620016f6833981810160405281019062000075919062000155565b806000806101000a81548173ffffffffffffffffffffffffffffffffffffffff021916908373ffffffffffffffffffffffffffffffffffffffff1602179055505062000187565b7f4e487b7100000000000000000000000000000000000000000000000000000000600052602160045260246000fd5b600080fd5b600073ffffffffffffffffffffffffffffffffffffffff82169050919050565b60006200011d82620000f0565b9050919050565b6200012f8162000110565b81146200013b57600080fd5b50565b6000815190506200014f8162000124565b92915050565b6000602082840312156200016e576200016d620000eb565b5b60006200017e848285016200013e565b91505092915050565b61155f80620001976000396000f3fe6080604052600436106100c25760003560e01c80638e7ea5b21161007f578063e97dcb6211610059578063e97dcb6214610248578063efb98bcf14610252578063efbe1c1c1461027d578063f71d96cb14610294576100c2565b80638e7ea5b2146101c957806395805dad146101f4578063c1f526041461021d576100c2565b8063072ea61c146100c757806316ada547146100f2578063200d2ed21461011d5780633c20ee6e14610148578063481c6a75146101735780638b5b9ccc1461019e575b600080fd5b3480156100d357600080fd5b506100dc6102d1565b6040516100e99190610b59565b60405180910390f35b3480156100fe57600080fd5b506101076102d7565b6040516101149190610b59565b60405180910390f35b34801561012957600080fd5b506101326102dd565b60405161013f9190610beb565b60405180910390f35b34801561015457600080fd5b5061015d6102f0565b60405161016a9190610b59565b60405180910390f35b34801561017f57600080fd5b506101886102f6565b6040516101959190610c47565b60405180910390f35b3480156101aa57600080fd5b506101b361031a565b6040516101c09190610d20565b60405180910390f35b3480156101d557600080fd5b506101de6103a8565b6040516101eb9190610c47565b60405180910390f35b34801561020057600080fd5b5061021b60048036038101906102169190610d73565b6103d2565b005b34801561022957600080fd5b50610232610494565b60405161023f9190610b59565b60405180910390f35b61025061049c565b005b34801561025e57600080fd5b5061026761064a565b6040516102749190610b59565b60405180910390f35b34801561028957600080fd5b506102926106ef565b005b3480156102a057600080fd5b506102bb60048036038101906102b69190610d73565b610976565b6040516102c89190610c47565b60405180910390f35b60025481565b60055481565b600660009054906101000a900460ff1681565b60045481565b60008054906101000a900473ffffffffffffffffffffffffffffffffffffffff1681565b6060600180548060200260200160405190810160405280929190818152602001828054801561039e57602002820191906000526020600020905b8160009054906101000a900473ffffffffffffffffffffffffffffffffffffffff1673ffffffffffffffffffffffffffffffffffffffff1681526020019060010190808311610354575b5050505050905090565b6000600360009054906101000a900473ffffffffffffffffffffffffffffffffffffffff16905090565b600060028111156103e6576103e5610b74565b5b600660009054906101000a900460ff16600281111561040857610407610b74565b5b14610448576040517f08c379a000000000000000000000000000000000000000000000000000000000815260040161043f90610e23565b60405180910390fd5b6001600660006101000a81548160ff0219169083600281111561046e5761046d610b74565b5b0217905550603c816104809190610e72565b4261048b9190610eb4565b60048190555050565b600047905090565b4260045410156104e1576040517f08c379a00000000000000000000000000000000000000000000000000000000081526004016104d890610f34565b60405180910390fd5b6104ea336109b5565b1561052a576040517f08c379a000000000000000000000000000000000000000000000000000000000815260040161052190610fa0565b60405180910390fd5b60025434101561056f576040517f08c379a00000000000000000000000000000000000000000000000000000000081526004016105669061100c565b60405180910390fd5b6001600281111561058357610582610b74565b5b600660009054906101000a900460ff1660028111156105a5576105a4610b74565b5b146105e5576040517f08c379a00000000000000000000000000000000000000000000000000000000081526004016105dc9061109e565b60405180910390fd5b6001339080600181540180825580915050600190039060005260206000200160009091909190916101000a81548173ffffffffffffffffffffffffffffffffffffffff021916908373ffffffffffffffffffffffffffffffffffffffff160217905550565b600042600454116106665761065d6106ef565b600090506106ec565b60028081111561067957610678610b74565b5b600660009054906101000a900460ff16600281111561069b5761069a610b74565b5b036106db576040517f08c379a00000000000000000000000000000000000000000000000000000000081526004016106d290611130565b60405180910390fd5b426004546106e99190611150565b90505b90565b600454421015610734576040517f08c379a000000000000000000000000000000000000000000000000000000000815260040161072b906111f6565b60405180910390fd5b6002600660006101000a81548160ff0219169083600281111561075a57610759610b74565b5b02179055506000600180549050116107a7576040517f08c379a000000000000000000000000000000000000000000000000000000000815260040161079e90611262565b60405180910390fd5b60006001805490506107b7610a63565b6107c191906112b1565b9050600181815481106107d7576107d66112e2565b5b9060005260206000200160009054906101000a900473ffffffffffffffffffffffffffffffffffffffff16600360006101000a81548173ffffffffffffffffffffffffffffffffffffffff021916908373ffffffffffffffffffffffffffffffffffffffff160217905550600061084c610494565b9050600360009054906101000a900473ffffffffffffffffffffffffffffffffffffffff1673ffffffffffffffffffffffffffffffffffffffff166108fc479081150290604051600060405180830381858888f193505050501580156108b6573d6000803e3d6000fd5b50600067ffffffffffffffff8111156108d2576108d1611311565b5b6040519080825280602002602001820160405280156109005781602001602082028036833780820191505090505b5060019080519060200190610916929190610a99565b507f3cf1af53e79884a92609ce59db1ec9f584d88e2d14c8eaba43a21db81318301e600360009054906101000a900473ffffffffffffffffffffffffffffffffffffffff168260405161096a929190611340565b60405180910390a15050565b6001818154811061098657600080fd5b906000526020600020016000915054906101000a900473ffffffffffffffffffffffffffffffffffffffff1681565b600080600090505b600180549050811015610a58578273ffffffffffffffffffffffffffffffffffffffff16600182815481106109f5576109f46112e2565b5b9060005260206000200160009054906101000a900473ffffffffffffffffffffffffffffffffffffffff1673ffffffffffffffffffffffffffffffffffffffff1603610a45576001915050610a5e565b8080610a5090611369565b9150506109bd565b50600090505b919050565b600044426001604051602001610a7b939291906114f0565b6040516020818303038152906040528051906020012060001c905090565b828054828255906000526020600020908101928215610b12579160200282015b82811115610b115782518260006101000a81548173ffffffffffffffffffffffffffffffffffffffff021916908373ffffffffffffffffffffffffffffffffffffffff16021790555091602001919060010190610ab9565b5b509050610b1f9190610b23565b5090565b5b80821115610b3c576000816000905550600101610b24565b5090565b6000819050919050565b610b5381610b40565b82525050565b6000602082019050610b6e6000830184610b4a565b92915050565b7f4e487b7100000000000000000000000000000000000000000000000000000000600052602160045260246000fd5b60038110610bb457610bb3610b74565b5b50565b6000819050610bc582610ba3565b919050565b6000610bd582610bb7565b9050919050565b610be581610bca565b82525050565b6000602082019050610c006000830184610bdc565b92915050565b600073ffffffffffffffffffffffffffffffffffffffff82169050919050565b6000610c3182610c06565b9050919050565b610c4181610c26565b82525050565b6000602082019050610c5c6000830184610c38565b92915050565b600081519050919050565b600082825260208201905092915050565b6000819050602082019050919050565b610c9781610c26565b82525050565b6000610ca98383610c8e565b60208301905092915050565b6000602082019050919050565b6000610ccd82610c62565b610cd78185610c6d565b9350610ce283610c7e565b8060005b83811015610d13578151610cfa8882610c9d565b9750610d0583610cb5565b925050600181019050610ce6565b5085935050505092915050565b60006020820190508181036000830152610d3a8184610cc2565b905092915050565b600080fd5b610d5081610b40565b8114610d5b57600080fd5b50565b600081359050610d6d81610d47565b92915050565b600060208284031215610d8957610d88610d42565b5b6000610d9784828501610d5e565b91505092915050565b600082825260208201905092915050565b7f6c6f74746572792068617320616c7265616479206265656e207374617274656460008201527f206f7220656e6465642e00000000000000000000000000000000000000000000602082015250565b6000610e0d602a83610da0565b9150610e1882610db1565b604082019050919050565b60006020820190508181036000830152610e3c81610e00565b9050919050565b7f4e487b7100000000000000000000000000000000000000000000000000000000600052601160045260246000fd5b6000610e7d82610b40565b9150610e8883610b40565b9250828202610e9681610b40565b91508282048414831517610ead57610eac610e43565b5b5092915050565b6000610ebf82610b40565b9150610eca83610b40565b9250828201905080821115610ee257610ee1610e43565b5b92915050565b7f74696d652069732075702e000000000000000000000000000000000000000000600082015250565b6000610f1e600b83610da0565b9150610f2982610ee8565b602082019050919050565b60006020820190508181036000830152610f4d81610f11565b9050919050565b7f796f752061726520616c72656164792061207061727469636970616e74000000600082015250565b6000610f8a601d83610da0565b9150610f9582610f54565b602082019050919050565b60006020820190508181036000830152610fb981610f7d565b9050919050565b7f656e74727920666565206973206c657373207468656e20302e31206574686572600082015250565b6000610ff6602083610da0565b915061100182610fc0565b602082019050919050565b6000602082019050818103600083015261102581610fe9565b9050919050565b7f6c6f747465727920686173206e6f742073746172746564206f7220697473206560008201527f6e6465642e000000000000000000000000000000000000000000000000000000602082015250565b6000611088602583610da0565b91506110938261102c565b604082019050919050565b600060208201905081810360008301526110b78161107b565b9050919050565b7f6c6f7474657279206973206e6f742073746172746564206f722069747320656e60008201527f6465642e00000000000000000000000000000000000000000000000000000000602082015250565b600061111a602483610da0565b9150611125826110be565b604082019050919050565b600060208201905081810360008301526111498161110d565b9050919050565b600061115b82610b40565b915061116683610b40565b925082820390508181111561117e5761117d610e43565b5b92915050565b7f796f752063616e206e6f7420656e64206c6f7474657279206265666f7265207460008201527f696d652e00000000000000000000000000000000000000000000000000000000602082015250565b60006111e0602483610da0565b91506111eb82611184565b604082019050919050565b6000602082019050818103600083015261120f816111d3565b9050919050565b7f30207061727469636970616e7473000000000000000000000000000000000000600082015250565b600061124c600e83610da0565b915061125782611216565b602082019050919050565b6000602082019050818103600083015261127b8161123f565b9050919050565b7f4e487b7100000000000000000000000000000000000000000000000000000000600052601260045260246000fd5b60006112bc82610b40565b91506112c783610b40565b9250826112d7576112d6611282565b5b828206905092915050565b7f4e487b7100000000000000000000000000000000000000000000000000000000600052603260045260246000fd5b7f4e487b7100000000000000000000000000000000000000000000000000000000600052604160045260246000fd5b60006040820190506113556000830185610c38565b6113626020830184610b4a565b9392505050565b600061137482610b40565b91507fffffffffffffffffffffffffffffffffffffffffffffffffffffffffffffffff82036113a6576113a5610e43565b5b600182019050919050565b6000819050919050565b6113cc6113c782610b40565b6113b1565b82525050565b600081549050919050565b600081905092915050565b60008190508160005260206000209050919050565b61140681610c26565b82525050565b600061141883836113fd565b60208301905092915050565b60008160001c9050919050565b600073ffffffffffffffffffffffffffffffffffffffff82169050919050565b600061146461145f83611424565b611431565b9050919050565b60006114778254611451565b9050919050565b6000600182019050919050565b6000611496826113d2565b6114a081856113dd565b93506114ab836113e8565b8060005b838110156114e3576114c08261146b565b6114ca888261140c565b97506114d58361147e565b9250506001810190506114af565b5085935050505092915050565b60006114fc82866113bb565b60208201915061150c82856113bb565b60208201915061151c828461148b565b915081905094935050505056fea2646970667358221220391c36e2555886f0b5f70b21ecd6a7a44aa32fde46a52474bc719e2a248d366564736f6c63430008110033",
  "linkReferences": {},
  "deployedLinkReferences": {}
}