{
  "_format": "hh-sol-artifact-1",
  "contractName": "StakingPool",
  "sourceName": "contracts/StakingPool.sol",
  "abi": [
    {
      "inputs": [],
      "stateMutability": "nonpayable",
      "type": "constructor"
    },
    {
      "anonymous": false,
      "inputs": [
        {
          "indexed": false,
          "internalType": "address",
          "name": "investor",
          "type": "address"
        }
      ],
      "name": "NewInvestor",
      "type": "event"
    },
    {
      "inputs": [],
      "name": "admin",
      "outputs": [
        {
          "internalType": "address",
          "name": "",
          "type": "address"
        }
      ],
      "stateMutability": "view",
      "type": "function"
    },
    {
      "inputs": [
        {
          "internalType": "address",
          "name": "",
          "type": "address"
        }
      ],
      "name": "balances",
      "outputs": [
        {
          "internalType": "uint256",
          "name": "",
          "type": "uint256"
        }
      ],
      "stateMutability": "view",
      "type": "function"
    },
    {
      "inputs": [
        {
          "internalType": "address",
          "name": "",
          "type": "address"
        }
      ],
      "name": "changeClaimed",
      "outputs": [
        {
          "internalType": "bool",
          "name": "",
          "type": "bool"
        }
      ],
      "stateMutability": "view",
      "type": "function"
    },
    {
      "inputs": [
        {
          "internalType": "bytes",
          "name": "pubkey",
          "type": "bytes"
        },
        {
          "internalType": "bytes",
          "name": "withdrawal_credentials",
          "type": "bytes"
        },
        {
          "internalType": "bytes",
          "name": "signature",
          "type": "bytes"
        },
        {
          "internalType": "bytes32",
          "name": "deposit_data_root",
          "type": "bytes32"
        }
      ],
      "name": "deposit",
      "outputs": [],
      "stateMutability": "nonpayable",
      "type": "function"
    },
    {
      "inputs": [],
      "name": "depositContract",
      "outputs": [
        {
          "internalType": "contract IDepositContract",
          "name": "",
          "type": "address"
        }
      ],
      "stateMutability": "view",
      "type": "function"
    },
    {
      "inputs": [],
      "name": "end",
      "outputs": [
        {
          "internalType": "uint256",
          "name": "",
          "type": "uint256"
        }
      ],
      "stateMutability": "view",
      "type": "function"
    },
    {
      "inputs": [],
      "name": "finalize",
      "outputs": [],
      "stateMutability": "nonpayable",
      "type": "function"
    },
    {
      "inputs": [],
      "name": "finalized",
      "outputs": [
        {
          "internalType": "bool",
          "name": "",
          "type": "bool"
        }
      ],
      "stateMutability": "view",
      "type": "function"
    },
    {
      "inputs": [],
      "name": "getChange",
      "outputs": [],
      "stateMutability": "nonpayable",
      "type": "function"
    },
    {
      "inputs": [],
      "name": "invest",
      "outputs": [],
      "stateMutability": "payable",
      "type": "function"
    },
    {
      "inputs": [
        {
          "internalType": "bytes",
          "name": "",
          "type": "bytes"
        }
      ],
      "name": "pubkeysUsed",
      "outputs": [
        {
          "internalType": "bool",
          "name": "",
          "type": "bool"
        }
      ],
      "stateMutability": "view",
      "type": "function"
    },
    {
      "inputs": [],
      "name": "totalChange",
      "outputs": [
        {
          "internalType": "uint256",
          "name": "",
          "type": "uint256"
        }
      ],
      "stateMutability": "view",
      "type": "function"
    },
    {
      "inputs": [],
      "name": "totalInvested",
      "outputs": [
        {
          "internalType": "uint256",
          "name": "",
          "type": "uint256"
        }
      ],
      "stateMutability": "view",
      "type": "function"
    }
  ],
  "bytecode": "0x60806040526f219ab540356cbb839cbe05303d7705fa600260006101000a81548173ffffffffffffffffffffffffffffffffffffffff021916908373ffffffffffffffffffffffffffffffffffffffff16021790555034801561006157600080fd5b5033600360006101000a81548173ffffffffffffffffffffffffffffffffffffffff021916908373ffffffffffffffffffffffffffffffffffffffff16021790555062093a80426100b291906100f6565b60048190555061012a565b6000819050919050565b7f4e487b7100000000000000000000000000000000000000000000000000000000600052601160045260246000fd5b6000610101826100bd565b915061010c836100bd565b9250828201905080821115610124576101236100c7565b5b92915050565b6114a6806200013a6000396000f3fe6080604052600436106100c25760003560e01c806391aa47891161007f578063e8b5e51f11610059578063e8b5e51f14610256578063e94ad65b14610260578063efbe1c1c1461028b578063f851a440146102b6576100c2565b806391aa4789146101d7578063b3f05b9714610214578063b7ed5abc1461023f576100c2565b806322895118146100c757806327e235e3146100f05780634bb278f31461012d5780635216aeec146101445780635411c7bd1461016f5780637aa8ff191461019a575b600080fd5b3480156100d357600080fd5b506100ee60048036038101906100e99190610ae7565b6102e1565b005b3480156100fc57600080fd5b5061011760048036038101906101129190610c0e565b6104fd565b6040516101249190610c54565b60405180910390f35b34801561013957600080fd5b50610142610515565b005b34801561015057600080fd5b506101596105ef565b6040516101669190610c54565b60405180910390f35b34801561017b57600080fd5b506101846105f5565b6040516101919190610c54565b60405180910390f35b3480156101a657600080fd5b506101c160048036038101906101bc9190610c0e565b6105fb565b6040516101ce9190610c8a565b60405180910390f35b3480156101e357600080fd5b506101fe60048036038101906101f99190610de6565b61061b565b60405161020b9190610c8a565b60405180910390f35b34801561022057600080fd5b50610229610651565b6040516102369190610c8a565b60405180910390f35b34801561024b57600080fd5b50610254610664565b005b61025e6108cd565b005b34801561026c57600080fd5b506102756109e6565b6040516102829190610e8e565b60405180910390f35b34801561029757600080fd5b506102a0610a0c565b6040516102ad9190610c54565b60405180910390f35b3480156102c257600080fd5b506102cb610a12565b6040516102d89190610eb8565b60405180910390f35b60011515600560009054906101000a900460ff16151514610337576040517f08c379a000000000000000000000000000000000000000000000000000000000815260040161032e90610f30565b60405180910390fd5b600360009054906101000a900473ffffffffffffffffffffffffffffffffffffffff1673ffffffffffffffffffffffffffffffffffffffff163373ffffffffffffffffffffffffffffffffffffffff16146103c7576040517f08c379a00000000000000000000000000000000000000000000000000000000081526004016103be90610f9c565b60405180910390fd5b6801bc16d674ec8000004710156103dd57600080fd5b60001515600188886040516103f3929190610fec565b908152602001604051809103902060009054906101000a900460ff16151514610451576040517f08c379a000000000000000000000000000000000000000000000000000000000815260040161044890611051565b60405180910390fd5b600260009054906101000a900473ffffffffffffffffffffffffffffffffffffffff1673ffffffffffffffffffffffffffffffffffffffff1663228951186801bc16d674ec800000898989898989896040518963ffffffff1660e01b81526004016104c297969594939291906110be565b6000604051808303818588803b1580156104db57600080fd5b505af11580156104ef573d6000803e3d6000fd5b505050505050505050505050565b60006020528060005260406000206000915090505481565b60045442101561055a576040517f08c379a000000000000000000000000000000000000000000000000000000000815260040161055190610f30565b60405180910390fd5b60001515600560009054906101000a900460ff161515146105b0576040517f08c379a00000000000000000000000000000000000000000000000000000000081526004016105a79061116a565b60405180910390fd5b6001600560006101000a81548160ff021916908315150217905550476006819055506801bc16d674ec800000476105e791906111b9565b600781905550565b60065481565b60075481565b60086020528060005260406000206000915054906101000a900460ff1681565b6001818051602081018201805184825260208301602085012081835280955050505050506000915054906101000a900460ff1681565b600560009054906101000a900460ff1681565b60011515600560009054906101000a900460ff161515146106ba576040517f08c379a00000000000000000000000000000000000000000000000000000000081526004016106b190611236565b60405180910390fd5b60008060003373ffffffffffffffffffffffffffffffffffffffff1673ffffffffffffffffffffffffffffffffffffffff168152602001908152602001600020541161073b576040517f08c379a0000000000000000000000000000000000000000000000000000000008152600401610732906112a2565b60405180910390fd5b60001515600860003373ffffffffffffffffffffffffffffffffffffffff1673ffffffffffffffffffffffffffffffffffffffff16815260200190815260200160002060009054906101000a900460ff161515146107ce576040517f08c379a00000000000000000000000000000000000000000000000000000000081526004016107c59061130e565b60405180910390fd5b6001600860003373ffffffffffffffffffffffffffffffffffffffff1673ffffffffffffffffffffffffffffffffffffffff16815260200190815260200160002060006101000a81548160ff02191690831515021790555060006006546000803373ffffffffffffffffffffffffffffffffffffffff1673ffffffffffffffffffffffffffffffffffffffff16815260200190815260200160002054600754610877919061135d565b610881919061139f565b90503373ffffffffffffffffffffffffffffffffffffffff166108fc829081150290604051600060405180830381858888f193505050501580156108c9573d6000803e3d6000fd5b5050565b6004544210610911576040517f08c379a00000000000000000000000000000000000000000000000000000000081526004016109089061141c565b60405180910390fd5b60008060003373ffffffffffffffffffffffffffffffffffffffff1673ffffffffffffffffffffffffffffffffffffffff168152602001908152602001600020540361098f577f97d33a7365e760e859a3453f70484ea24a4aeb75478205a52ac35174ead0ccf6336040516109869190610eb8565b60405180910390a15b346000803373ffffffffffffffffffffffffffffffffffffffff1673ffffffffffffffffffffffffffffffffffffffff16815260200190815260200160002060008282546109dd919061143c565b92505081905550565b600260009054906101000a900473ffffffffffffffffffffffffffffffffffffffff1681565b60045481565b600360009054906101000a900473ffffffffffffffffffffffffffffffffffffffff1681565b6000604051905090565b600080fd5b600080fd5b600080fd5b600080fd5b600080fd5b60008083601f840112610a7157610a70610a4c565b5b8235905067ffffffffffffffff811115610a8e57610a8d610a51565b5b602083019150836001820283011115610aaa57610aa9610a56565b5b9250929050565b6000819050919050565b610ac481610ab1565b8114610acf57600080fd5b50565b600081359050610ae181610abb565b92915050565b60008060008060008060006080888a031215610b0657610b05610a42565b5b600088013567ffffffffffffffff811115610b2457610b23610a47565b5b610b308a828b01610a5b565b9750975050602088013567ffffffffffffffff811115610b5357610b52610a47565b5b610b5f8a828b01610a5b565b9550955050604088013567ffffffffffffffff811115610b8257610b81610a47565b5b610b8e8a828b01610a5b565b93509350506060610ba18a828b01610ad2565b91505092959891949750929550565b600073ffffffffffffffffffffffffffffffffffffffff82169050919050565b6000610bdb82610bb0565b9050919050565b610beb81610bd0565b8114610bf657600080fd5b50565b600081359050610c0881610be2565b92915050565b600060208284031215610c2457610c23610a42565b5b6000610c3284828501610bf9565b91505092915050565b6000819050919050565b610c4e81610c3b565b82525050565b6000602082019050610c696000830184610c45565b92915050565b60008115159050919050565b610c8481610c6f565b82525050565b6000602082019050610c9f6000830184610c7b565b92915050565b600080fd5b6000601f19601f8301169050919050565b7f4e487b7100000000000000000000000000000000000000000000000000000000600052604160045260246000fd5b610cf382610caa565b810181811067ffffffffffffffff82111715610d1257610d11610cbb565b5b80604052505050565b6000610d25610a38565b9050610d318282610cea565b919050565b600067ffffffffffffffff821115610d5157610d50610cbb565b5b610d5a82610caa565b9050602081019050919050565b82818337600083830152505050565b6000610d89610d8484610d36565b610d1b565b905082815260208101848484011115610da557610da4610ca5565b5b610db0848285610d67565b509392505050565b600082601f830112610dcd57610dcc610a4c565b5b8135610ddd848260208601610d76565b91505092915050565b600060208284031215610dfc57610dfb610a42565b5b600082013567ffffffffffffffff811115610e1a57610e19610a47565b5b610e2684828501610db8565b91505092915050565b6000819050919050565b6000610e54610e4f610e4a84610bb0565b610e2f565b610bb0565b9050919050565b6000610e6682610e39565b9050919050565b6000610e7882610e5b565b9050919050565b610e8881610e6d565b82525050565b6000602082019050610ea36000830184610e7f565b92915050565b610eb281610bd0565b82525050565b6000602082019050610ecd6000830184610ea9565b92915050565b600082825260208201905092915050565b7f746f6f206561726c790000000000000000000000000000000000000000000000600082015250565b6000610f1a600983610ed3565b9150610f2582610ee4565b602082019050919050565b60006020820190508181036000830152610f4981610f0d565b9050919050565b7f6f6e6c792061646d696e00000000000000000000000000000000000000000000600082015250565b6000610f86600a83610ed3565b9150610f9182610f50565b602082019050919050565b60006020820190508181036000830152610fb581610f79565b9050919050565b600081905092915050565b6000610fd38385610fbc565b9350610fe0838584610d67565b82840190509392505050565b6000610ff9828486610fc7565b91508190509392505050565b7f74686973207075626b65792077617320616c7265616479207573656400000000600082015250565b600061103b601c83610ed3565b915061104682611005565b602082019050919050565b6000602082019050818103600083015261106a8161102e565b9050919050565b600082825260208201905092915050565b600061108e8385611071565b935061109b838584610d67565b6110a483610caa565b840190509392505050565b6110b881610ab1565b82525050565b600060808201905081810360008301526110d981898b611082565b905081810360208301526110ee818789611082565b90508181036040830152611103818587611082565b905061111260608301846110af565b98975050505050505050565b7f616c72656164792066696e616c697a6564000000000000000000000000000000600082015250565b6000611154601183610ed3565b915061115f8261111e565b602082019050919050565b6000602082019050818103600083015261118381611147565b9050919050565b7f4e487b7100000000000000000000000000000000000000000000000000000000600052601260045260246000fd5b60006111c482610c3b565b91506111cf83610c3b565b9250826111df576111de61118a565b5b828206905092915050565b7f6e6f742066696e616c697a656400000000000000000000000000000000000000600082015250565b6000611220600d83610ed3565b915061122b826111ea565b602082019050919050565b6000602082019050818103600083015261124f81611213565b9050919050565b7f6e6f7420616e20696e766573746f720000000000000000000000000000000000600082015250565b600061128c600f83610ed3565b915061129782611256565b602082019050919050565b600060208201905081810360008301526112bb8161127f565b9050919050565b7f6368616e676520616c726561647920636c61696d656400000000000000000000600082015250565b60006112f8601683610ed3565b9150611303826112c2565b602082019050919050565b60006020820190508181036000830152611327816112eb565b9050919050565b7f4e487b7100000000000000000000000000000000000000000000000000000000600052601160045260246000fd5b600061136882610c3b565b915061137383610c3b565b925082820261138181610c3b565b915082820484148315176113985761139761132e565b5b5092915050565b60006113aa82610c3b565b91506113b583610c3b565b9250826113c5576113c461118a565b5b828204905092915050565b7f746f6f206c617465000000000000000000000000000000000000000000000000600082015250565b6000611406600883610ed3565b9150611411826113d0565b602082019050919050565b60006020820190508181036000830152611435816113f9565b9050919050565b600061144782610c3b565b915061145283610c3b565b925082820190508082111561146a5761146961132e565b5b9291505056fea26469706673582212205fe356327b620f3570acc664b625a4a147e2029dd9997c60e97ded3666fdfc3364736f6c63430008110033",
  "linkReferences": {},
  "deployedLinkReferences": {}
}