{
  "_format": "hh-sol-artifact-1",
  "contractName": "Transactions",
  "sourceName": "contracts/Transactions.sol",
  "abi": [
    {
      "anonymous": false,
      "inputs": [
        {
          "indexed": false,
          "internalType": "address",
          "name": "from",
          "type": "address"
        },
        {
          "indexed": false,
          "internalType": "address",
          "name": "receiver",
          "type": "address"
        },
        {
          "indexed": false,
          "internalType": "uint256",
          "name": "amount",
          "type": "uint256"
        },
        {
          "indexed": false,
          "internalType": "string",
          "name": "message",
          "type": "string"
        },
        {
          "indexed": false,
          "internalType": "uint256",
          "name": "timestamp",
          "type": "uint256"
        }
      ],
      "name": "Transfer",
      "type": "event"
    },
    {
      "inputs": [
        {
          "internalType": "address payable",
          "name": "receiver",
          "type": "address"
        },
        {
          "internalType": "uint256",
          "name": "amount",
          "type": "uint256"
        },
        {
          "internalType": "string",
          "name": "message",
          "type": "string"
        }
      ],
      "name": "addTransaction",
      "outputs": [],
      "stateMutability": "nonpayable",
      "type": "function"
    },
    {
      "inputs": [],
      "name": "getTransactions",
      "outputs": [
        {
          "components": [
            {
              "internalType": "address",
              "name": "sender",
              "type": "address"
            },
            {
              "internalType": "address payable",
              "name": "receiver",
              "type": "address"
            },
            {
              "internalType": "uint256",
              "name": "amount",
              "type": "uint256"
            },
            {
              "internalType": "string",
              "name": "message",
              "type": "string"
            },
            {
              "internalType": "uint256",
              "name": "timestamp",
              "type": "uint256"
            }
          ],
          "internalType": "struct Transactions.TransferStruct[]",
          "name": "",
          "type": "tuple[]"
        }
      ],
      "stateMutability": "view",
      "type": "function"
    },
    {
      "inputs": [],
      "name": "transactionCount",
      "outputs": [
        {
          "internalType": "uint256",
          "name": "",
          "type": "uint256"
        }
      ],
      "stateMutability": "view",
      "type": "function"
    },
    {
      "inputs": [
        {
          "internalType": "uint256",
          "name": "",
          "type": "uint256"
        }
      ],
      "name": "transactions",
      "outputs": [
        {
          "internalType": "address",
          "name": "sender",
          "type": "address"
        },
        {
          "internalType": "address payable",
          "name": "receiver",
          "type": "address"
        },
        {
          "internalType": "uint256",
          "name": "amount",
          "type": "uint256"
        },
        {
          "internalType": "string",
          "name": "message",
          "type": "string"
        },
        {
          "internalType": "uint256",
          "name": "timestamp",
          "type": "uint256"
        }
      ],
      "stateMutability": "view",
      "type": "function"
    }
  ],
  "bytecode": "0x608060405234801561001057600080fd5b50610eeb806100206000396000f3fe608060405234801561001057600080fd5b506004361061004c5760003560e01c8063090c85a41461005157806383920e901461006d5780639ace38c21461008b578063b77bf600146100bf575b600080fd5b61006b60048036038101906100669190610725565b6100dd565b005b610075610272565b604051610082919061098a565b60405180910390f35b6100a560048036038101906100a091906109ac565b610423565b6040516100b6959493929190610a50565b60405180910390f35b6100c7610531565b6040516100d49190610aaa565b60405180910390f35b60016000808282546100ef9190610af4565b9250508190555060016040518060a001604052803373ffffffffffffffffffffffffffffffffffffffff1681526020018573ffffffffffffffffffffffffffffffffffffffff16815260200184815260200183815260200142815250908060018154018082558091505060019003906000526020600020906005020160009091909190915060008201518160000160006101000a81548173ffffffffffffffffffffffffffffffffffffffff021916908373ffffffffffffffffffffffffffffffffffffffff16021790555060208201518160010160006101000a81548173ffffffffffffffffffffffffffffffffffffffff021916908373ffffffffffffffffffffffffffffffffffffffff1602179055506040820151816002015560608201518160030190816102219190610d34565b506080820151816004015550507fc4b32d7ff75a51e487f3cbb5d3202f2efecca1f4c2b987e0039c1d3220b48a833384848442604051610265959493929190610e5b565b60405180910390a1505050565b60606001805480602002602001604051908101604052809291908181526020016000905b8282101561041a57838290600052602060002090600502016040518060a00160405290816000820160009054906101000a900473ffffffffffffffffffffffffffffffffffffffff1673ffffffffffffffffffffffffffffffffffffffff1673ffffffffffffffffffffffffffffffffffffffff1681526020016001820160009054906101000a900473ffffffffffffffffffffffffffffffffffffffff1673ffffffffffffffffffffffffffffffffffffffff1673ffffffffffffffffffffffffffffffffffffffff1681526020016002820154815260200160038201805461037f90610b57565b80601f01602080910402602001604051908101604052809291908181526020018280546103ab90610b57565b80156103f85780601f106103cd576101008083540402835291602001916103f8565b820191906000526020600020905b8154815290600101906020018083116103db57829003601f168201915b5050505050815260200160048201548152505081526020019060010190610296565b50505050905090565b6001818154811061043357600080fd5b90600052602060002090600502016000915090508060000160009054906101000a900473ffffffffffffffffffffffffffffffffffffffff16908060010160009054906101000a900473ffffffffffffffffffffffffffffffffffffffff16908060020154908060030180546104a890610b57565b80601f01602080910402602001604051908101604052809291908181526020018280546104d490610b57565b80156105215780601f106104f657610100808354040283529160200191610521565b820191906000526020600020905b81548152906001019060200180831161050457829003601f168201915b5050505050908060040154905085565b60005481565b6000604051905090565b600080fd5b600080fd5b600073ffffffffffffffffffffffffffffffffffffffff82169050919050565b60006105768261054b565b9050919050565b6105868161056b565b811461059157600080fd5b50565b6000813590506105a38161057d565b92915050565b6000819050919050565b6105bc816105a9565b81146105c757600080fd5b50565b6000813590506105d9816105b3565b92915050565b600080fd5b600080fd5b6000601f19601f8301169050919050565b7f4e487b7100000000000000000000000000000000000000000000000000000000600052604160045260246000fd5b610632826105e9565b810181811067ffffffffffffffff82111715610651576106506105fa565b5b80604052505050565b6000610664610537565b90506106708282610629565b919050565b600067ffffffffffffffff8211156106905761068f6105fa565b5b610699826105e9565b9050602081019050919050565b82818337600083830152505050565b60006106c86106c384610675565b61065a565b9050828152602081018484840111156106e4576106e36105e4565b5b6106ef8482856106a6565b509392505050565b600082601f83011261070c5761070b6105df565b5b813561071c8482602086016106b5565b91505092915050565b60008060006060848603121561073e5761073d610541565b5b600061074c86828701610594565b935050602061075d868287016105ca565b925050604084013567ffffffffffffffff81111561077e5761077d610546565b5b61078a868287016106f7565b9150509250925092565b600081519050919050565b600082825260208201905092915050565b6000819050602082019050919050565b60006107cb8261054b565b9050919050565b6107db816107c0565b82525050565b6107ea8161056b565b82525050565b6107f9816105a9565b82525050565b600081519050919050565b600082825260208201905092915050565b60005b8381101561083957808201518184015260208101905061081e565b60008484015250505050565b6000610850826107ff565b61085a818561080a565b935061086a81856020860161081b565b610873816105e9565b840191505092915050565b600060a08301600083015161089660008601826107d2565b5060208301516108a960208601826107e1565b5060408301516108bc60408601826107f0565b50606083015184820360608601526108d48282610845565b91505060808301516108e960808601826107f0565b508091505092915050565b6000610900838361087e565b905092915050565b6000602082019050919050565b600061092082610794565b61092a818561079f565b93508360208202850161093c856107b0565b8060005b85811015610978578484038952815161095985826108f4565b945061096483610908565b925060208a01995050600181019050610940565b50829750879550505050505092915050565b600060208201905081810360008301526109a48184610915565b905092915050565b6000602082840312156109c2576109c1610541565b5b60006109d0848285016105ca565b91505092915050565b6109e2816107c0565b82525050565b6109f18161056b565b82525050565b610a00816105a9565b82525050565b600082825260208201905092915050565b6000610a22826107ff565b610a2c8185610a06565b9350610a3c81856020860161081b565b610a45816105e9565b840191505092915050565b600060a082019050610a6560008301886109d9565b610a7260208301876109e8565b610a7f60408301866109f7565b8181036060830152610a918185610a17565b9050610aa060808301846109f7565b9695505050505050565b6000602082019050610abf60008301846109f7565b92915050565b7f4e487b7100000000000000000000000000000000000000000000000000000000600052601160045260246000fd5b6000610aff826105a9565b9150610b0a836105a9565b9250828201905080821115610b2257610b21610ac5565b5b92915050565b7f4e487b7100000000000000000000000000000000000000000000000000000000600052602260045260246000fd5b60006002820490506001821680610b6f57607f821691505b602082108103610b8257610b81610b28565b5b50919050565b60008190508160005260206000209050919050565b60006020601f8301049050919050565b600082821b905092915050565b600060088302610bea7fffffffffffffffffffffffffffffffffffffffffffffffffffffffffffffffff82610bad565b610bf48683610bad565b95508019841693508086168417925050509392505050565b6000819050919050565b6000610c31610c2c610c27846105a9565b610c0c565b6105a9565b9050919050565b6000819050919050565b610c4b83610c16565b610c5f610c5782610c38565b848454610bba565b825550505050565b600090565b610c74610c67565b610c7f818484610c42565b505050565b5b81811015610ca357610c98600082610c6c565b600181019050610c85565b5050565b601f821115610ce857610cb981610b88565b610cc284610b9d565b81016020851015610cd1578190505b610ce5610cdd85610b9d565b830182610c84565b50505b505050565b600082821c905092915050565b6000610d0b60001984600802610ced565b1980831691505092915050565b6000610d248383610cfa565b9150826002028217905092915050565b610d3d826107ff565b67ffffffffffffffff811115610d5657610d556105fa565b5b610d608254610b57565b610d6b828285610ca7565b600060209050601f831160018114610d9e5760008415610d8c578287015190505b610d968582610d18565b865550610dfe565b601f198416610dac86610b88565b60005b82811015610dd457848901518255600182019150602085019450602081019050610daf565b86831015610df15784890151610ded601f891682610cfa565b8355505b6001600288020188555050505b505050505050565b6000610e21610e1c610e178461054b565b610c0c565b61054b565b9050919050565b6000610e3382610e06565b9050919050565b6000610e4582610e28565b9050919050565b610e5581610e3a565b82525050565b600060a082019050610e7060008301886109d9565b610e7d6020830187610e4c565b610e8a60408301866109f7565b8181036060830152610e9c8185610a17565b9050610eab60808301846109f7565b969550505050505056fea264697066735822122040c83641aed041bb729eaa6082723a6e48640f36c359734b29ce4c42a6f4bd9564736f6c63430008110033",
  "linkReferences": {},
  "deployedLinkReferences": {}
}